:020000040800F2
:100000000825002029020008CF200008E71B00086F
:10001000CD200008C70700083D28000800000000A8
:100020000000000000000000000000009101000836
:100030002D09000800000000D5010008A9240008CF
:10004000430200084302000843020008430200087C
:10005000430200084302000843020008430200086C
:10006000430200084302000843020008430200085C
:10007000430200084302000843020008430200084C
:10008000430200084302000843020008430200083C
:10009000430200084302000843020008430200082C
:1000A0004302000835250008430200084302000807
:1000B000430200084302000843020008430200080C
:1000C00043020008430200084302000843020008FC
:1000D00043020008430200084302000843020008EC
:1000E00043020008430200084302000800F002F83F
:1000F00000F03FF80AA090E8000C82448344AAF183
:100100000107DA4501D100F034F8AFF2090EBAE880
:100110000F0013F0010F18BFFB1A43F0010318473B
:100120004448000064480000103A24BF78C878C1F1
:10013000FAD8520724BF30C830C144BF04680C60ED
:10014000704700000023002400250026103A28BF35
:1001500078C1FBD8520728BF30C148BF0B60704739
:10016000642900F0BD80002070471FB51FBD10B589
:1001700010BD00F0EEFA1146FFF7F7FF02F076FB34
:1001800000F00CFB03B4FFF7F2FF03BC00F014FB1C
:10019000224B19680868B0E8F00F80F30988BFF3B4
:1001A0006F8F4FF0000080F311884EF00D0E7047F6
:1001B0000000000006480068006880F3088862B606
:1001C00061B6BFF34F8FBFF36F8F00DF00BF00BF7B
:1001D00008ED00E0EFF30980BFF36F8F0F4B1A6853
:1001E00020E9F00F106008B54FF0500080F311883F
:1001F000BFF34F8FBFF36F8F03F0B8FA4FF00000DB
:1002000080F31188BDE8084019680868B0E8F00F6D
:1002100080F30988BFF36F8F704700BF3000002064
:10022000EFF3058070470000094880470948004700
:10023000FEE7FEE7FEE7FEE7FEE7FEE7FEE7FEE796
:10024000FEE7FEE704480549054A064B70470000F3
:1002500033250008ED000008081F002008250020B5
:1002600008210020082100200FB41CB5074B06AA66
:100270007B4469460090059800F0FFF9002069462C
:1002800000F00EFA1CBC5DF814FB00002D04000009
:1002900070B5044685690068C10601D5302600E0C6
:1002A0002026C00707D070BDD4E901213046904711
:1002B000206A401C20626D1EF6D570BD70B50446E4
:1002C00085690078C00707D170BDD4E901212020DD
:1002D0009047206A401C20626D1EF6D570BD00005C
:1002E0002DE9F0410646002410687529314616A50F
:1002F00010D0AFF30080002802DA404213A507E0D7
:1003000031688A0701D512A502E0490704D511A575
:10031000012401E0AFF3008000210A2206F1240746
:1003200009E0B0FBF2FCB0FBF2F302FB1C00303042
:1003300078541846491C0028F3D123462A463046F3
:10034000BDE8F04100F03AB9000000002D000000C7
:100350002B000000200000002DE9F05F89460446D4
:100360004FF0000ADFF824B1FB44C0F820A020467B
:10037000E168884700287DD0252806D0D4E90121EE
:100380009047206A401C2062F1E700255F46204626
:10039000E16888472028064607DB312E05D2B819C8
:1003A00010F8200C08B10543F1E7A80701D525F0A6
:1003B0000405C4F81CA00027C4F818A02A2E09D0F0
:1003C000304602F04CFA38B304EB8708303EC8F8E8
:1003D000186019E059F8041B204604EB870291616C
:1003E000E1688847012F064618D1E069002820DA25
:1003F00025F020051DE0D8F8180000EB800006EB82
:1004000040003038C8F818002046E16888470646A2
:1004100002F025FA0028EED1012F0AD02E2E08D1A5
:100420002046E16888477F1C0646022F45F02005DC
:10043000C4DBA069002803DA404245F00105A06151
:10044000E80701D025F01005A6B1A6F14100192852
:1004500002D8203645F400654A46314620462560DC
:100460004D46FFF77DFE60B1012807D0ED1D25F058
:10047000070000E007E000F1080978E705F104094A
:1004800075E730467AE7206ABDE8F09FAA4500008C
:1004900010B5431C02E010F8011B71B18107FAD1BD
:1004A0004FF0013202C88C1A8C4314EAC211F9D001
:1004B000C01A0A0603D0C01E10BDC01A10BD0A041F
:1004C00001D0801E10BD0902FCD0401E10BD032AC1
:1004D00040F2308010F0030C00F0158011F8013B61
:1004E000BCF1020F624498BF11F801CB00F8013B48
:1004F00038BF11F8013BA2F1040298BF00F801CB0C
:1005000038BF00F8013B11F0030300F0CE80083A39
:10051000C0F0088051F8043B083A51F804CBA0E839
:100520000810F5E7121D5CBF51F8043B40F8043B8E
:10053000AFF30080D20724BF11F8013B11F801CBC3
:1005400048BF11F8012B24BF00F8013B00F801CB94
:1005500048BF00F8012B704702F0FF0343EA032273
:1005600042EA024200F0D5B84FF0000200B513464F
:1005700094469646203922BFA0E80C50A0E80C50C3
:10058000B1F12001BFF4F7AF090728BFA0E80C5074
:1005900048BF0CC05DF804EB890028BF40F8042B6D
:1005A00008BF704748BF20F8022B11F0804F18BFDA
:1005B00000F8012B70477047704770472DE9F047EE
:1005C0000D4699469246044600F1240801688806C3
:1005D00004D5E06921F01001216000E00120A8426B
:1005E00001DD471B00E00027A1697A1902EB090031
:1005F000081AA0612078C00602D42046FFF748FE02
:10060000002608E0D4E901211AF806009047206A84
:10061000401C761C20624E45F4DB2078C0060AD5CB
:100620002046FFF735FE06E0D4E90121302090474F
:10063000206A401C2062381EA7F10107F4DC07E0A5
:10064000D4E9012118F805009047206A401C206277
:10065000281EA5F10105F3DC2046FFF72FFE2078C8
:10066000000602D50220BDE8F0870120FBE700006C
:1006700001694A1C02610878704700B58FB0CDE966
:1006800001310021059105497944CDE90310114656
:100690006846FFF761FE0FB000BD0000E5FFFFFFF9
:1006A0000A6802F8010B0A60704710B5203AC0F0E2
:1006B0000B80B1E81850203AA0E81850B1E8185063
:1006C000A0E81850BFF4F5AF5FEA027C24BFB1E8A0
:1006D0001850A0E8185044BF18C918C0BDE8104011
:1006E0005FEA827C24BF51F8043B40F8043B08BF1A
:1006F0007047D20728BF31F8023B48BF11F8012BE1
:1007000028BF20F8023B48BF00F8012B70474FF08C
:1007100000020429C0F0128010F0030C3FF426AF51
:10072000CCF1040CBCF1020F18BF00F8012BA8BFDC
:1007300020F8022BA1EB0C01FFF718BF5FEAC17C88
:1007400024BF00F8012B00F8012B48BF00F8012B53
:100750007047754600F02CF8AE46050069465346D2
:1007600020F00700854618B020B5FFF76BFDBDE807
:1007700020404FF000064FF000074FF000084FF008
:10078000000B21F00701AC46ACE8C009ACE8C00999
:10079000ACE8C009ACE8C0098D46704710B5044606
:1007A000AFF300802046BDE81040FFF7EBBC00002F
:1007B00000487047A81E002001491820ABBEFEE784
:1007C000260002007047FEE71FB50020029080203F
:1007D000009001200190032003906946014800F039
:1007E000F1F81FBD000801402DE9F04F87B000254A
:1007F000814600950195FFF7E7FF4B4C01228021D0
:10080000204600F0DCF900228021204600F0D7F9D4
:10081000122000F0C5F801228021204600F0CFF917
:100820001E2000F084F880204FF0010ACDE9020577
:10083000CDE904A502A9204600F0C4F84FF4FA77E8
:1008400005E001206D1C00F072F8BD426AD88021DD
:10085000204600F0A7F90128F3D0002505E001208B
:100860006D1C00F064F8BD425CD88021204600F089
:1008700099F90028F3D04FF00008EB460725002631
:1008800005E00120761C00F052F8BE424AD88021D3
:10089000204600F087F90128F3D0002605E001206A
:1008A000761C00F044F8BE423CD88021204600F07F
:1008B00079F90028F3D0282000F039F8802120466B
:1008C00000F070F901281BF8082058460AFA05F1D3
:1008D00026D08A436D1E6DB20BF80820002DCEDAAB
:1008E00008F101004FFA80F8B8F1050FC6DB9DF85A
:1008F00000009DF801109DF802209DF8033001448E
:100900001A4411449DF8042091420BD189F800004B
:100910009DF8021089F80110012007B0BDE8F08FA2
:100920000A43D7E70020F8E700080140704700EBD2
:10093000C00000E000BF401EFCD2704772B6FEE768
:1009400010B500210A4801F03DF80A4C012291033C
:10095000204600F034F901221103204600F02FF95F
:10096000002261142046BDE8104000F028B90000C4
:10097000FC000020000C01404FF47A71884200D93D
:10098000084602490968486370470000FC000020DF
:10099000024900200968486370470000FC000020FD
:1009A00070B5044600F010F90546601C02D00448FA
:1009B0000078044400F008F9401BA042FAD370BD4F
:1009C000200000202DE9F84FDFF8B8910024A9F1AC
:1009D000040B23460F2709F1040AABF1040EC9E00A
:1009E0000125A5402A40AA427DD1674ED1F804C016
:1009F000ACEB0608B44532D014DCBCF1030F3AD09E
:100A000009DCBCF1000F2AD0BCF1010F1CD0BCF1F5
:100A1000020F31D11DE0BCF1110F17D0BCF1120F44
:100A20002AD119E0B8F5881F19D006DCB8F5803F47
:100A300015D0B8F5801F1FD111E0B8F5001F0ED0FA
:100A4000B8F5041F18D10AE0CB6815E0CB681B1D70
:100A500012E0CB6808330FE0CB680C330CE08B68F6
:100A60002BB1012B4FF0080303D0456104E00423B0
:100A700002E0056100E00023FF2A01D8064601E0FC
:100A800000F104064FEA840501D9A5F12005D6F846
:100A9000008007FA05FC28EA0C0803FA05F548EA85
:100AA0000508C6F800804D68ED0062D5374DAE6987
:100AB00046F00106AE61AD6924F0030605F00105BC
:100AC0000095334D06EB050CDCF80850A607360FF1
:100AD00007FA06F825EA0805DFF8B880404503D193
:100AE0004FF0000817E044E0DFF8AC80404502D149
:100AF0004FF001080FE0DFF8A480404502D14FF02D
:100B0000020808E0DFF89880404502D14FF0030862
:100B100001E04FF0040808FA06F848EA0508CCF8A6
:100B200008804D68D9F80060ED024D4601D51643A6
:100B300000E096432E604D68DAF80060AD0255463D
:100B400001D5164300E096432E604D68DBF8006047
:100B5000AD035D4601D5164300E096432E604D6817
:100B6000DEF80060ED03754601D5164300E09643BC
:100B70002E60641C0D682A46E5407FF431AFBDE865
:100B8000F88F00000804014000001110001002401E
:100B90000000014000080140000C0140001001402D
:100BA000001401408068084000D001207047C268EE
:100BB00021EA02030A4043EA0241016170470AB197
:100BC000016170470904FBE7014880687047000035
:100BD0002000002070B5040025D094F83D000025C9
:100BE00020B984F83C50204600F050F9242084F8C5
:100BF0003D002068016821F0010101602068016862
:100C000041F4004101602068016821F40041016065
:100C100000F0EEFA4D4A6168914201D84C4900E07B
:100C20004C49884201D2012070BD4B492368B0FB7A
:100C3000F1F15E6826F03F060E435E606368934202
:100C400006D94FF4967359434FF47A73B1FBF3F11D
:100C50002368491C1E6A26F03F0631431962616809
:100C6000914210D84900401EB0FBF1F2521CC2F371
:100C70000B02042A01D2042022E0B0FBF1F0401C58
:100C8000C0F30B001CE0A268F2B301EBC10303EB5D
:100C90000116431EB3FBF6F35B1C43F480431B05B4
:100CA00049D092B301EBC10202EB0111401EB0FB2F
:100CB000F1F0401CC0F30B0040F4804040F40040D1
:100CC0002168CA694CF6FF739A431043C861D4E99E
:100CD000071001432068026822F0C002114301603E
:100CE000D4E9030101432068826848F2FF339A4344
:100CF00011438160D4E9050108432168CA6822F0E4
:100D0000FF021043C86001E00EE016E020680168B1
:100D100041F0010101602564202084F83D00256335
:100D200084F83E50002070BD01EB4106431EB3FB2A
:100D3000F6F35B1CB3E70120C2E701EB4101401E63
:100D4000B0FBF1F0401CC0F30B00B7E7A086010038
:100D500080841E0000093D0040420F002DE9FF4F36
:100D600083B09A46DDE9119793460446DDF840804A
:100D7000FFF72AFF054694F83D0020287FD119236C
:100D8000012240492046009500F0C6FF002876D198
:100D900094F83C00012872D0012084F83C002068BF
:100DA0000168C90703D1016841F0010101602068B1
:100DB000016821F400610160212084F83D00402099
:100DC00084F83E0000262664C4F82480A4F82A9003
:100DD000608D20852C48E062CDE9007553465A4667
:100DE0002046049900F018FF70B930E02A463946D1
:100DF000204601F037F858B1206C042804D120684F
:100E0000016841F400710160012007B0BDE8F08F76
:100E1000606A216800780861606A401C6062218D08
:100E2000491E89B22185628D521E628522685369EE
:100E3000DB435B070BD469B100781061606A401C2A
:100E40006062208D401E2085608D401E6085208D53
:100E50000028CBD12A463946204600F031FF002831
:100E6000CAD154F83D0B016841F4007101602020A3
:100E700004F81E09E67766770020C6E7FFE7022040
:100E8000C3E70000020010000000FFFF10B586B0AD
:100E90000021009101910291039100681349884259
:100EA00022D1134CA06940F00800A061A0696946F6
:100EB00000F0080004904FF4407000901220019060
:100EC000032003900B48FFF77DFD0B48416841F07C
:100ED000E06141F002014160E06940F40010E0612E
:100EE000E06900F40010049006B010BD005400400A
:100EF00000100240000C01400000014002488168DF
:100F0000027811448160704720000020074810B526
:100F1000016841F010010160032000F0A1F80F20EA
:100F200000F006F800F04AF8002010BD0020024052
:100F300030B505461C4887B0816941F40061816184
:100F4000806906A900F40060009001A800F030F963
:100F500000F05EF91549164AB0FBF1F11548491E3B
:100F60000260416040F2E7320021C0E90321816064
:100F7000816100F049FB040012D10E4800F072FBC1
:100F800004000DD1192000F03DF8102D07D20022E9
:100F90002946192000F044F80748056000E00124C4
:100FA00007B0204630BD00000010024040420F0054
:100FB000002C01408C010020240000200F4808B5BF
:100FC000816941F001018161816901F001010091B4
:100FD000C16941F08051C161C069002200F08050B8
:100FE00000900F21901E00F01BF80548416821F089
:100FF000E06141F00071416008BD00000010024056
:1010000000000140002809DB00F01F02012191408F
:101010004009800000F1E020C0F800117047000096
:10102000F0B40E4B1B680C46C3F30223C3F1070553
:10103000042D00D90425191D072901D2002300E041
:10104000DB1E012606FA05F1491E214099409E400B
:10105000761E16403143F0BC01F0F1BB0CED00E010
:10106000064900F0070208684FF6FF03184040EAFF
:101070000220034A10430860704700000CED00E0B6
:101080000000FA052DE9F0470F46050061D0434EF8
:10109000306800F00700B84209D2306820F007003D
:1010A00038433060306800F00700B84251D12868FA
:1010B0003B4C810712D5400703D5606840F4E060DF
:1010C00060602878000703D5606840F46050606075
:1010D0006068A96820F0F000084360602878C007C5
:1010E00028D06868012810D02168022810D089070C
:1010F00000292EDA616821F0030101436160FFF7E6
:1011000063FD804641F288390DE021688903EFE7ED
:101110008901EDE7FFF758FDA0EB0801494502D929
:101120000320BDE8F0876068696800F00C00B0EB50
:10113000810FEFD1306800F00700B8420BD930685A
:1011400020F0070038433060306800F00700B842F4
:1011500001D00120E5E72878400705D56068E968F7
:1011600020F4E060084360602878000706D56068D6
:10117000296920F4605040EAC100606000F058F82E
:101180006168084AC1F30311515CC8400649086010
:1011900006480068FFF7CCFE0020C2E700200240AE
:1011A00000100240FE4800082C000020240000200F
:1011B0000F2202600C4A536803F003034360536834
:1011C00003F0F0038360536803F4E063C360526884
:1011D0004FF4E06303EAD20202610448006800F0C1
:1011E0000700086070470000001002400020024025
:1011F0000448054900684968044AC1F30221515C6A
:10120000C84070472C000020001002400E49000822
:101210000448054900684968044AC1F3C221515C89
:10122000C84070472C000020001002400E49000802
:101230000E4A51680E4801F00C03042B11D0082B04
:101240000FD10C48C1F38343C903C05C0AD5516870
:10125000084AC1F34041921E515C054A5043B0FB1D
:10126000F1F0704704494843704700000010024005
:1012700000127A00EE48000800093D002DE9F84F01
:10128000040070D02078C04DC00749D06868C0F312
:101290008100012807D06868C0F38100022809D1C5
:1012A0006868C00306D52868800339D560680028BF
:1012B000E7D035E06068B0F5803F0BD010B1B0F5F5
:1012C000A02F11D0286820F480302860286820F4EE
:1012D000802002E0286840F480302860606890B187
:1012E000FFF772FC06460AE0286840F48020286078
:1012F000F0E700BFFFF768FC801B642873D82868FC
:101300008003F7D50CE0FFF75FFC064605E000BF61
:10131000FFF75AFC801B6428F0D828688003F7D4B4
:1013200020789A4E80074FF001094FF0000839D518
:10133000686810F00C0F07D06868C0F381000228BD
:1013400009D16868C00306D42868800714D52069CD
:10135000012808D110E02069B0B1C6F80090FFF76D
:1013600033FC074605E00AE1FFF72EFCC01B02280C
:10137000C4D828688007F7D52868616920F0F8008C
:1013800040EAC10028600DE0C6F80080FFF71CFCB1
:10139000074604E0FFF718FCC01B022823D8286882
:1013A0008007F7D4207800072CD57948A169D9B1F6
:1013B000C0F80090FFF708FC074604E0FFF704FCC4
:1013C000C01B02280FD8686A8007F7D571484FF410
:1013D000FA510068B0FBF1F0009000BF0098411E88
:1013E0000091FAD20EE080E0C0F80080FFF7ECFB3D
:1013F000074604E0FFF7E8FBC01B022875D8686ABF
:101400008007F7D42078400760D5E8690027C0003E
:1014100008D4E86940F08050E861E869012700F0ED
:10142000805000905C480168C90513D40168834668
:1014300041F480710160FFF7C7FB824606E000BF00
:10144000FFF7C2FBA0EB0A0064284ED8DBF80000CF
:10145000C005F5D5E06801280AD008B1052813D0E9
:10146000286A20F001002862286A20F0040002E0C7
:10147000286A40F001002862E06841F2883B98B198
:10148000FFF7A2FB82460BE0286A40F004002862C6
:10149000EEE700BFFFF798FBA0EB0A0159455AD8C9
:1014A000286A8007F6D50CE0FFF78EFB824605E040
:1014B000FFF78AFBA0EB0A0159454CD8286A800740
:1014C000F6D41FB1E86920F08050E861E06988B384
:1014D0006968C1F38101022944D00228C6F86080FE
:1014E00004D0FFF771FB044638E034E0FFF76CFBF3
:1014F000074604E0FFF768FBC01B02282BD82868CA
:101500008001F7D4206AB0F5803F05D16868A168F2
:1015100020F4003008436860D4E908010843696892
:1015200021F4741108436860C6F86090FFF74CFB23
:10153000044606E025E000BFFFF746FB001B02283B
:1015400009D828688001F7D51BE000BFFFF73CFBF6
:10155000001B022802D90320BDE8F88F286880010B
:10156000F4D40EE00128F7D06868226A00F48031D4
:10157000914204D1616A00F47010884201D00120C8
:10158000EAE70020E8E700000010024000004242C5
:10159000800442422C0000200070004070477047D9
:1015A00070B590F83C20012A26D0012480F83C40F8
:1015B000022280F83D2003685A689D6822F0700678
:1015C0000A6832435A600D4B02689A4208D0B2F161
:1015D000804F05D00A4B9A4202D00A4B9A4204D15E
:1015E000496825F080031943916080F83D4000214F
:1015F00080F83C10084670BD022070BD002C0140F0
:10160000000400400008004010B5040003D094F826
:101610003D0010B107E0012010BD002084F83C001F
:10162000204600F01EF8022084F83D00211D2068AD
:1016300000F086FF012084F8460084F83E0084F81C
:101640003F0084F8400084F8410084F8420084F8A8
:10165000430084F8440084F8450084F83D000020ED
:1016600010BD704790F83D10012901D0012070474E
:10167000022180F83D100168CA6842F00102CA6088
:1016800000680B49884208D0B0F1804F05D0094965
:10169000884202D00849884204D1816801F00701DC
:1016A000062903D0016841F0010101600020704764
:1016B000002C01400004004000080040704770B555
:1016C0000446006801694FF00005C943890715D435
:1016D000C168C943890711D4E91E0161012020773F
:1016E000206880698007204602D0FFF7E7FF04E00A
:1016F00000F0BEF8204600F063F925772068016904
:10170000C943490717D4C168C943490713D46FF0C7
:1017100004010161022020772068806910F4407F75
:10172000204602D0FFF7CAFF04E000F0A1F82046EF
:1017300000F046F9257720680169C943090716D4E6
:10174000C168C943090712D46FF008010161042080
:1017500020772068C0698007204602D0FFF7AEFFDF
:1017600004E000F085F8204600F02AF9257720688B
:101770000169C943C90617D4C168C943C90613D44E
:101780006FF010010161082020772068C06910F413
:10179000407F204602D0FFF791FF04E000F068F898
:1017A000204600F00DF9257720680169C943C90773
:1017B00008D1C168C943C90704D1891E0161204607
:1017C00000F04EF920680169C943090609D4C168CF
:1017D000C943090605D46FF0800101612046FFF777
:1017E000DDFE20680169C943490609D4C168C943BF
:1017F000490605D46FF040010161204600F03AF936
:1018000020680169C94389060BD4C168C9438906A8
:1018100007D46FF0200101612046BDE87040FFF75A
:10182000BEBE70BD00B585B000210091019102914E
:10183000039100680B49884211D10B48816941F03E
:10184000040181618069694600F004000490402031
:1018500000900220019003900448FFF7B3F805B010
:1018600000BD0000000400400010024000080140DC
:10187000704770B5044690F83C0000260D460128DC
:101880000FD0012084F83C006AB1042A1DD0082A38
:101890002FD00C2A3FD00126002084F83C0030468F
:1018A00070BD022070BD206800F08EFE2068816946
:1018B00041F0080181612068816921F004018161A2
:1018C000206881692A69114311E0206800F0A4FEB4
:1018D0002068816941F4006181612068816921F497
:1018E00080618161206881692A6941EA0221816100
:1018F000D2E7206800F0BCFE2068C16941F0080111
:10190000C1612068C16921F00401C1612068C16919
:101910002A69114311E0206800F0D6FE2068C169F1
:1019200041F40061C1612068C16921F48061C16135
:101930002068C1692A6941EA0221C161ACE710B59A
:10194000040003D094F83D0010B107E0012010BD61
:10195000002084F83C00204600F01EF8022084F8A5
:101960003D00211D206800F0EBFD012084F84600B9
:1019700084F83E0084F83F0084F8400084F8410079
:1019800084F8420084F8430084F8440084F8450059
:1019900084F83D00002010BD08B500680649884263
:1019A00008D10648C16941F00201C161C06900F077
:1019B0000200009008BD000000040040001002403A
:1019C0007047000010B50446022249B104290ED028
:1019D000082913D094F84100012816D0012010BD29
:1019E00094F83E000128F9D184F83E200FE094F8E5
:1019F0003F000128F2D184F83F2008E094F840002D
:101A00000128EBD184F8402001E084F84120012234
:101A1000206800F0CBFD0F492068884203D1426C5A
:101A200042F4004242642068884208D0B0F1804FFE
:101A300005D00949884202D00849884204D181680A
:101A400001F00701062903D0016841F0010101609E
:101A5000002010BD002C01400004004000080040A0
:101A600000680349884201D1FFF748BA7047000077
:101A7000002C0140704770B5040004D094F8410078
:101A8000002510B106E0012070BD84F840502046CA
:101A900000F024F8242084F841002068C16821F473
:101AA0000051C160204600F031FE2068016921F438
:101AB000904101612068416921F02A01416120685B
:101AC000C16841F40051C1606564202084F8410080
:101AD00084F842006563002070BD000030B585B019
:101AE00000240094019402940394006814498842ED
:101AF00024D11448816941F480418161816901F4F4
:101B000080410491816941F00401816180690E4D39
:101B100000F0040004904FF4007000900220019047
:101B20000320039069462846FEF74CFF2815CDE9AF
:101B30000004694628460294FEF744FF05B030BD14
:101B40000038014000100240000801402DE9F84330
:101B5000044690F841001F4616460D46202802D044
:101B60000220BDE8F8837DB176B1002060642120B9
:101B700084F84100FFF728F8A6848046E684A06830
:101B8000B0F5805F02D003E00120EAE7206910B1E0
:101B90002E4600250EE000260CE08021204600F0B5
:101BA00011FEA0B9AEB116F8010B21684860E08CB7
:101BB000401EE084E08C43464FF00002009700286E
:101BC000EBD14FF04001204600F0FCFD30B1032086
:101BD000C7E735F8020BC0F30800E6E7202084F8D9
:101BE00041000020BDE7FEE701684A69D243520583
:101BF0000FD46FF480624A61002140F8301F202228
:101C000042738173026942F0040202610173012090
:101C100070470020704700002DE9F8430446006833
:101C20000D46DDE9089701689846164641F4807133
:101C300001604B4600224FF001112046009700F052
:101C40006BF848B120680068C00502D54FF40070F9
:101C500020640320BDE8F883216805F0FE000861D8
:101C60003B464A461549204600F09EF888B9206850
:101C70004169806900903A464946204600F0F2F8F2
:101C800048B1206C042804D12068016841F4007137
:101C900001600120DEE7F5B2B8F1010F09D021683B
:101CA000300A08613A464946204600F0DBF8002831
:101CB000E7D1206805610020CCE7000002000100A8
:101CC00070B516460D4604461EE02046FFF78CFF11
:101CD00008B1012070BD681C16D0FEF775FF801B8F
:101CE000A84200D885B920684069C04340070BD599
:101CF000002044F8300F20216173A073216941F066
:101D0000200121612073E4E720684069C043400757
:101D1000DBD4002070BD00002DE9F047984617463F
:101D20000D460446C1F30746DDF820902AE000BFC7
:101D3000B8F1FF3F26D0FEF747FFA0EB0901414570
:101D400002D8B8F1000F1DD12068012E16D080698D
:101D500025EA00000004000C12D00020B84211D186
:101D6000002044F8300F20216173A073216941F0F5
:101D70002001216120730120BDE8F0874069E7E779
:101D80000120EBE72068012E0AD0806925EA0000D7
:101D90000004000C06D00020B842C9D00020EBE7B8
:101DA0004069F3E70120F7E72DE9F047984616462A
:101DB0000D4604464FF000094FF0200AC1F30747D3
:101DC00023E020684069C043400515D420680168BD
:101DD00041F40071016021686FF480604861C4F8CB
:101DE000309084F83DA084F83E90216C41F00401CD
:101DF000216484F83C9021E0701C06D0FEF7E4FEDC
:101E0000A0EB0800B04203D816B1012F1FD021E08B
:101E10002068012F15D0806925EA00000004000C1D
:101E200018D000BF44F8309F84F80DA084F80E90BD
:101E3000216941F02001216184F80C900120BDE866
:101E4000F087406925EA00000004000CEAD1206810
:101E5000406901E02068806925EA00000004000C68
:101E6000AFD1ECE770B516460D4604461EE020469D
:101E7000FFF7BAFE08B1012070BD681C16D0FEF74E
:101E8000A3FE801BA84200D885B920684069C043E2
:101E900000060BD5002044F8300F20216173A07399
:101EA000216941F0200121612073E4E72068406945
:101EB000C0430006DBD4002070BD000010B5022135
:101EC0001A4A084600F082FD194C02210022E06106
:101ED000084600F07BFD022120600022084600F049
:101EE00075FD124A6060B43A0021124800F0E8FD26
:101EF0000E4AA060903A00210F4800F0E1FD0B4A25
:101F0000E0606C3A00210D4800F0DAFD074A2061DC
:101F1000483A00210A4800F0D3FD044A6061243A9F
:101F20000021084800F0CCFDA06110BDD448000895
:101F300000000020B523000895220008D1230008E6
:101F400041240008292300082DE9F04385B000242E
:101F500021480094019402940394816941F0200186
:101F60008161816901F020010491816941F00401DE
:101F70008161816901F004010491816941F00801E6
:101F800081618069DFF8548000F00800049000222D
:101F900082214046FEF713FEDFF844904FF4E047FD
:101FA000002239464846FEF70AFE82200125022615
:101FB000CDE90005CDE9024669464046FEF702FD3F
:101FC00000970396CDE9015469464846FEF7FAFCAE
:101FD00005B0BDE8F0830000001002400008014099
:101FE000000C01400D4810B50B4901600C494160DF
:101FF00000214FF480428160C0E903124161816198
:10200000C1610162FEF7E6FD002803D0BDE8104083
:10201000FEF794BC10BD000000540040A800002052
:10202000A086010010B58AB0002407941C216846E0
:102030000894FEF799FA1648144901604721C0E94F
:10204000011440F2E731C0E903148461FFF777FC23
:1020500008B1FEF773FC079407A90D480894FFF731
:102060009FFA08B1FEF76AFC6020CDE900040294F3
:102070000022694606480494FFF7FBFB08B1FEF70F
:102080005DFC0348FFF7CEFB0AB010BD0004004022
:10209000FC0000200C4810B50A4901604FF4E13102
:1020A0004160002181600C22C160C0E9041281619D
:1020B000C161FFF7E0FC002803D0BDE81040FEF747
:1020C0003DBC10BD0038014044010020FEE7FEE7A2
:1020D00070B500240021204600F060F800250020A3
:1020E00000F0C6F86D1CEDB2802DF8D3641CE4B28C
:1020F000082CEFD370BD10B56420FEF751FCAE2064
:1021000000F0A4F8202000F0A1F8022000F09EF8D2
:10211000D52000F09BF8802000F098F8A82000F06F
:1021200095F83F2000F092F8D32000F08FF80020BF
:1021300000F08CF8402000F089F8A12000F086F82B
:10214000C82000F083F8DA2000F080F8122000F0B8
:102150007DF8812000F07AF8CF2000F077F8D920C0
:1021600000F074F8F12000F071F8DB2000F06EF858
:10217000302000F06BF8A42000F068F8A62000F0F2
:1021800065F88D2000F062F8142000F05FF8AF20B1
:1021900000F05CF8BDE81040FFF79ABF10B50C46A0
:1021A00040F0B00000F052F8102040EA141000F0A7
:1021B0004DF804F00F00BDE8104000F047B80000F3
:1021C0002DE9F0414000801EC5B2C8000838C7B2F2
:1021D000164639462846FFF7E1FF1148002400EB78
:1021E00006163019A0F5805090F8000E00F040F867
:1021F000641CE4B2082CF4D36D1CE8B23946FFF736
:10220000CDFF00243019A0F5805090F8080E00F0A2
:102210002FF8641CE4B2082CF4D3BDE8F081000070
:10222000304200082DE9F04115460E4607460024CD
:1022300006E03019C1B23846FFF7C2FF641CE4B2B1
:102240002A5D002AF5D1BDE8F081000001B584B017
:102250000121642204A88DE807000B4600227821A2
:102260000248FEF77BFD05B000BD0000A80000207D
:1022700001B584B00121642204A88DE807000B4653
:10228000402278210248FEF769FD05B000BD00003C
:10229000A80000208EB0174C4FF4FA650DA8FEF789
:1022A000A3FA020014D09DF834309DF9352012A114
:1022B0006846FDF7D9FF00231A460DA9206800F0F3
:1022C000BFFB00231A460DA9606800F0B9FB03E0CC
:1022D0000FA16846FDF7C8FF6846FEF7D9F882B23D
:1022E000642369460F48FFF731FC284600F0DAFA0C
:1022F000D4E70000000000204448543131204F4B07
:102300003A202564432C20256425250D0A00000071
:102310004448543131204572726F723A2025640D61
:102320000A0000004401002008B50024204D661E6C
:102330004FF4FA67334600226946686800F008FBEC
:1023400070BB9DF8010034B1012C07D0022C0FD0D6
:10235000032C17D114E01D2810D206E0202801D349
:10236000022419E01B280DD80024FEF711FB17E00A
:10237000232801D3032417E01E2803D8012408E0F2
:102380002128EDD9012C04D0022C05D0032C07D133
:102390000AE04FF4FA7001E04FF41670FEF7ECFA21
:1023A000384600F07FFAC5E74FF42F70F6E70000DB
:1023B00000000020054C4FF4FA7502212046FEF77C
:1023C000F6FB284600F06EFAF7E70000000801402F
:1023D00086B0124C4FF0FF352B46002205A920682D
:1023E00000F0B6FA0028F7D1FFF772FE9DF915202C
:1023F0000BA16846FDF738FF01216A460846FFF742
:1024000011FF9DF814200AA16846FDF72DFF6A46CA
:1024100001210220FFF706FFDEE700000000002098
:1024200054656D703A20253032642043000000006E
:1024300048756D693A20253032642025250000005A
:1024400090B00E4C4FF0FF352B4600220FA92068AC
:1024500000F07EFA0028F7D19DF83C309DF93D2030
:1024600007A16846FDF700FF6846FEF711F882B243
:10247000642369460B48FFF769FBE5E7000000208D
:102480007B2274656D7065726174757265223A2580
:10249000642C2268756D6964697479223A25647DBB
:1024A0000D0A00004401002010B5502080F311886F
:1024B000BFF34F8FBFF36F8F01F018FD18B10449C0
:1024C0004FF080500860002080F3118810BD00009C
:1024D00004ED00E030B58FB028216846FEF744F8DF
:1024E00014210AA8FEF740F801210804CDE90010E4
:1024F0000024029402250491CDE907504FF4E01026
:1025000009906846FEF7BAFE08B172B6FEE70F20E2
:10251000CDE90A054FF48060CDE90C4002210AA8FC
:102520000E94FEF7AFFD002801D072B6FEE70FB0A3
:1025300030BD70470148FFF7C2B800008C01002091
:10254000F0B50268164B174C174D4FF08047984274
:1025500005D0B84203D0A04201D0A84203D122F056
:1025600070064A683243984205D0B84203D0A04270
:1025700001D0A84203D122F44074CA6822434C69B6
:1025800022F08002224302608A68C2620A68826284
:10259000984201D10969016301214161F0BD000048
:1025A000002C0140000400400008004010B501F07C
:1025B0001F030121046A99408C430462016A9A4016
:1025C0001143016210BD000030B5036A026A22F0B7
:1025D000010202624268846924F073050C682C438E
:1025E00023F002058B682B430A4DA8420BD123F040
:1025F0000805CB6822F440722B434D6923F0040395
:1026000015438A692A4342608461496841630362D1
:1026100030BD0000002C014030B5026A036A23F08F
:1026200010030362436884690D6824F4E64444EAB5
:1026300005248D6822F0200242EA05120B4DA842C3
:102640000ED1CD6822F0800242EA05124D6923F4D2
:10265000406343EA85038D6922F0400243EA850323
:102660004360846149688163026230BD002C01408F
:1026700030B5036A026A22F4807202624268C46959
:1026800023F4007324F073050C682C438D6843EA2F
:1026900005230C4DA8420ED1CD6823F4006343EA14
:1026A00005234D6922F4405242EA05128D6923F454
:1026B000806342EA05124260C4614968C1630362F3
:1026C00030BD0000002C014030B5046A026A22F4DB
:1026D000805202624268C3690D6823F4E64343EA0C
:1026E00005238D6824F4005444EA0534064DA842BD
:1026F00004D14D6922F4804242EA85124260C361EE
:1027000049680164046230BD002C014070B5044684
:1027100000680169E26821F44051114301612169B7
:10272000A0680843616908432168CA6841F20C63E4
:102730009A430243CA6020684169A26921F440714A
:10274000114341611E492068884202D1FEF760FDB5
:1027500001E0FEF74DFD00EBC00101EB00126068E7
:1027600064218000B2FBF0F3B3FBF1F36FF01806C5
:102770007343B2FBF0F5B2FBF0F605EB83053223B1
:1027800003EB0515B5FBF1F5B6FBF1F605F0F00529
:1027900005EB0615B2FBF0F6B2FBF0F0B0FBF1F082
:1027A0006FF01802504306EB800003EB0010B0FB03
:1027B000F1F0216800F00F002844886070BD00002F
:1027C000003801402DE9F041984617460E46044670
:1027D000069D27E0681C25D02DB1FEF7F5F9A0EB8A
:1027E0000800A8421ED920680C3050E8001F21F4D0
:1027F000D07140E80012002AF5D12068143050E86A
:10280000001F21F0010140E80012002AF5D120202C
:1028100084F8410084F84200002084F8400003203E
:10282000BDE8F0812068006836EA000004D000208E
:10283000B842CFD00020F3E70120F9E7FEE709070F
:10284000090E002804DB00F1E02080F80014704736
:1028500000F00F0000F1E02080F8141D70473038C0
:102860000A2801D20120704700207047FEF74EFB76
:10287000FFF730FEFFF768FBFFF7B4FBFFF70AFC3A
:10288000FFF7D0FBFFF737FCFEF75AF84FF448701C
:10289000FEF772F800F020F8FFF710FB00F038F8B0
:1028A000FEE7000010B5EFF3058149B9EFF31081A1
:1028B00031B908490968022905D1EFF3118111B135
:1028C0006FF0050403E0002408B100F09BFE2046F1
:1028D00010BD000080000020EFF3058058B9EFF331
:1028E000108040B909490868022801D030B109E0D8
:1028F000EFF3118030B16FF00500704701200860E0
:10290000002070474FF0FF3070470000800000202B
:1029100010B5EFF3058060B9EFF3108048B90B49AB
:102920000868022802D0012806D00BE0EFF31180DE
:1029300040B16FF0050010BD0220086000F0CAFE33
:10294000002010BD4FF0FF3010BD000080000020BF
:10295000F8B51D466FF003026FF002064FF0000459
:10296000EFF305834BB9EFF3108333B9154B1B68B5
:10297000022B17D1EFF31183A3B1F0B1E9B1E5B99F
:10298000002200926A4601F0BDF9012817D1009893
:10299000B0B10D494FF080500860BFF34F8FBFF3C7
:1029A0006F8F0DE048B141B12A4601F00FF90128BF
:1029B00006D025B16FF0010402E0144600E0344671
:1029C0002046F8BD8000002004ED00E0F8B5144674
:1029D0004FF00005EFF305826ABBEFF3108252BBA4
:1029E000164A1268022A02D1EFF311821ABB10B301
:1029F00009B3ACB1D4E902326BB1502A1BD32269BE
:102A0000CAB1676900FB01F6B74214D300250095EF
:102A100000F056FF07E072B9226962B9626952B9E3
:102A2000002200F029FF050005D00CB1216800E06C
:102A3000002100F0B1FD2846F8BD00008000002014
:102A4000F8B51D466FF003026FF002064FF0000468
:102A5000EFF305834BB9EFF3108333B9164B1B68C3
:102A6000022B18D1EFF31183ABB100B3F9B1F5B973
:102A70000022134600926A4601F04AF8012818D154
:102A80000098B8B10D494FF080500860BFF34F8FE8
:102A9000BFF36F8F0EE050B149B100232A4600F01A
:102AA00087FF012806D025B16FF0010402E014462B
:102AB00000E034462046F8BD8000002004ED00E030
:102AC000F0B585B04FEA01034FF00004EFF3058144
:102AD0000394A1BBEFF3108189BB21490968022946
:102AE00002D1EFF3118151BB48B3802618218DF834
:102AF000104004AD42B3176807B13D4697691FB156
:102B000039467F1E382F02D21779FF0702D00020E6
:102B100005B0F0BD576907B1BE08D2F808C0BCF1D6
:102B2000000F0DD0D4685C2C18D312693AB137B1BC
:102B30008DE806103246294601F099F903900DE020
:102B4000D7685FB912694AB903AACDE90012B2B2D7
:102B5000294601F05FF9012800D003940398D7E7D4
:102B6000800000202DE9F041134C0F4605466669B0
:102B70002068001D00F016FC681C07D137B12168E1
:102B8000BDE8F0410D48091D00F05CBC20683544EB
:102B9000B5424560216805D2A068BDE8F041091D35
:102BA00000F038BC6068091D00F034FC206B8542E1
:102BB00000D22563BDE8F08130000020C40600206B
:102BC0002DE9F041054600F049FC2D4C2069401CE0
:102BD000206120682B4F10B1E06930B32BE02560F5
:102BE0002069012827D1002606EB860007EB80002C
:102BF00000F002FC761C382EF6D3234800F0FCFBD4
:102C00002148143000F0F8FB1F48283000F0F4FB96
:102C10001D483C3000F0F0FB1B48503000F0ECFB4E
:102C2000194860601430A06005E02068E96AC06A55
:102C3000884200D82560E06A401CE0626864E86A67
:102C4000A169884200D9A06100EB800007EB8000F9
:102C5000291D00F0F7FB00F021FCE06900280CD0F2
:102C60002068E96AC06A884207D208494FF080505C
:102C70000860BFF34F8FBFF36F8FBDE8F081000096
:102C800030000020140200207406002004ED00E053
:102C900038B500F0E3FB104CA068C8B90F4800F04D
:102CA000ABFB0E48143000F0A7FB0C48206014303A
:102CB00060600A4B00202833009003F1500210217D
:102CC0000A2000F0FDFDA06010B105A100F064FC39
:102CD000BDE8384000F0E2BB6C000020D8060020C0
:102CE000546D72510000000030B4026C0B46002A93
:102CF0000BD0C1681144C1604468A14201D301688E
:102D0000C16030BC1846FDF7E2BB30BC70472DE90E
:102D1000F041856B174604460026026C82B1C7B1AC
:102D2000E068FDF7D4FBE168206C091AE1602268D5
:102D3000914202D26168081AE060022F16D017E0B3
:102D40002068A8B9606801F035F906460020606087
:102D50000EE0A068FDF7BBFB216CA0680844A060F2
:102D60006168884204D32068A06001E005B16D1E4F
:102D70006D1CA5633046BDE8F08110B5044690F89F
:102D8000590058B101280CD002280FD0502080F3F0
:102D90001188BFF34F8FBFF36F8FFEE7206B00F0FA
:102DA00091FB2046BDE8104000F08CBB10BD000038
:102DB00010484FF48051420706D0C01D0D4920F045
:102DC0000700411AC1F580510B4A00230144C2E9B2
:102DD00000030839103A21F0070111604B600B60C5
:102DE0000B1AC0E9001393604FF000405360D060AD
:102DF00070470000A80E002094000020144E154CCF
:102E0000A6F29C474FF08058DFF84C9012E000BFCC
:102E100000F024FBF068C568281D00F0C3FA2069A3
:102E2000401E2061E068401EE06000F037FB28464D
:102E3000FFF7A3FFE0680028EAD138680128F9D934
:102E4000C9F80080BFF34F8FBFF36F8FF2E7000028
:102E5000B00600203000002004ED00E070B51D46F3
:102E6000049C51B1C4F80020C4E90F01012120469F
:102E700000F05AFD84F84C5070BD2460F4E72DE951
:102E8000F0470E46DDE909841746824691009946CF
:102E9000089DA522206BFDF75FFB6FF00301206BFF
:102EA00001EB8701084420F00707780707D050207E
:102EB00080F31188BFF34F8FBFF36F8FFEE72218A7
:102EC000315C82F83410315C11B1401C1028F6D30B
:102ED000002684F84360382D00D33725E562C4E925
:102EE0001356201D00F093FA04F1180000F08FFA39
:102EF0002461C5F138006462A061666584F8586099
:102F00004A465146384600F03BFA2060B8F1000FBF
:102F100001D0C8F80040BDE8F087000030B5114985
:102F200000E011460A688242FBD34B685C18844279
:102F300003D1406818444860084643681C1894420E
:102F400009D1084C103C2468A24209D052681A44A6
:102F500042600A6812680260814200D0086030BD99
:102F60000460F9E79400002070B5002441600B4D27
:102F70000061914206D8D11A8269914206D2011DA0
:102F8000686807E09A4203D2994201D3012403E022
:102F9000011D286800F03EFA204670BD6C0000203C
:102FA00010B5044600F05AFAA06B28B15FF0000497
:102FB00000F074FA204610BD0124F9E730B589B05D
:102FC000304D55E00498002806DADDE90601059A3F
:102FD0009047049800284BDB069C606910B1201DC7
:102FE00000F0E0F902A800F0B9F8024604980A28B7
:102FF0003ED2DFE800F00505053D263705053D26F4
:103000000598A169034601442046FFF7ADFF00B3D0
:10301000616A20468847E069012829D10020009094
:103020000598A169002342181946204601F0CCF802
:1030300078B9502080F31188BFF34F8FBFF36F8FA3
:10304000FEE70598A06128B1811813462046FFF7D6
:103050008BFF0DE0502080F31188BFF34F8FBFF33B
:103060006F8FFEE794F82C0010B9204600F02AFA82
:10307000002204A9A86800F0A9FD0028A2D109B087
:1030800030BD00006C0000202DE9FC410F460546D4
:1030900000F064FB01A800F061F80446019818B143
:1030A00001F000F8BDE8FC81224EAFB17068006805
:1030B000A8B30027291B3A46B06800F081FA00F057
:1030C000F1FF0028EED11C494FF080500860BFF39B
:1030D0004F8FBFF36F8FE5E7A542EBD800F0E2FF1B
:1030E00030682746C068C468201D00F05BF9E069BD
:1030F000012810D1A0692B4641193A462046FFF716
:1031000033FF40B100200346014600902A46204686
:1031100001F05AF820B1616A20468847C2E707E00B
:10312000502080F31188BFF34F8FBFF36F8FFEE7FE
:103130000127BFE76C00002004ED00E0064841686D
:10314000096829B14168C968C9684968016370475D
:103150004FF0FF31FAE700003000002070B505465F
:1031600000F0BEFE064E04463069844203D200F0F1
:1031700009F8012000E0002028602046346170BD7D
:103180006C000020F8B5194D1FE0C068C4680668DF
:10319000201D00F007F9616A20468847E069012890
:1031A00013D1A0693044B04206D924616060211D6A
:1031B000286800F02FF908E000200346014600903F
:1031C0003246204601F000F838B12868016800292D
:1031D000DBD16968C5E90010F8BD502080F3118883
:1031E000BFF34F8FBFF36F8FFEE700006C0000202E
:1031F00008484068401C4FF0500080F3118804D00C
:10320000BFF34F8FBFF36F8FFEE7BFF34F8FBFF357
:103210006F8FFEE79C000020074C2068016841B1D9
:10322000C0680021D0F80000FFF72EFFFFF7C6FEB0
:10323000F3E701210020F7E76C0000202DE9F041C1
:10324000044600F00BF994F9455004F1240609E016
:10325000606A48B1304600F0EDFE08B100F000FAB7
:103260006D1E6DB2002DF3DC4FF0FF3684F8456023
:1032700000F014F900F0F2F894F9445004F110074A
:1032800009E0206948B1384600F0D4FE08B100F0EA
:10329000E7F96D1E6DB2002DF3DC84F84460BDE8E3
:1032A000F04100F0FBB800002DE9F0410546002791
:1032B00000F054FA314E306808B9FFF779FDF06834
:1032C00005424BD1C5B3083568070ED005F007009D
:1032D000C0F108000544680707D0502080F311882A
:1032E000BFF34F8FBFF36F8FFEE72DB3706885423A
:1032F00034D82248103001460C6801E020460C46C4
:103300006168A94202D221680029F7D131688C4254
:1033100024D007682168016060680837411B1029C4
:103320000FD96019420708D0502080F31188BFF3ED
:103330004F8FBFF36F8FFEE710E041606560FFF7CE
:10334000EDFD61687068401A7060B268904200D20A
:10335000B060F06801430020C4E9000100F0A2FE63
:10336000780707D0502080F31188BFF34F8FBFF349
:103370006F8FFEE73846BDE8F08100008400002032
:1033800010B5031F4FF080741C601B1F21F001015A
:103390001960191F024B0B60143940380A6010BDC8
:1033A000F1310008D0E9013201699A60D0E90123C6
:1033B0005A604A68824201D182684A6000220261F2
:1033C0000868401E0860086870470000034B0360EF
:1033D00003F15C000860802010607047F007002057
:1033E000044B036003F15C0008604FF480701060D0
:1033F000704700004C0A002000F108014FF0FF3236
:10340000C0E90112C1600161002101607047002123
:103410000161704730B50B685A1C02D000F10802F8
:1034200002E0026904E02246546825689D42FAD908
:1034300053684B6099608A60516008610168491C5B
:10344000016030BD42684A6093688B609368596040
:10345000916008610168491C01607047502080F349
:103460001188BFF34F8FBFF36F8F0A494868401C24
:10347000486001280CD10848006810F0FF0F07D001
:10348000502080F31188BFF34F8FBFF36F8FFEE79B
:10349000704700009C00002004ED00E008494868E7
:1034A00028B1401E486001D180F311887047502038
:1034B00080F31188BFF34F8FBFF36F8FFEE70000DB
:1034C0009C00002070B5002827D0144DA0F10804FE
:1034D0006168E868014207D1502080F31188BFF38A
:1034E0004F8FBFF36F8FFEE722683AB1502080F311
:1034F0001188BFF34F8FBFF36F8FFEE78143616089
:1035000000F02CF960686968084468602046FFF79D
:1035100005FDBDE8704000F0C5BD70BD8400002011
:103520004FF0E02000210161816105494FF47A727A
:103530000968B1FBF2F1491E416107210161704741
:103540002C00002010B5FCF76BFE114910280ED39B
:1035500000F1E02090F8F0030A78904207D2502062
:1035600080F31188BFF34F8FBFF36F8FFEE70948D9
:103570000068896800F4E060884207D9502080F331
:103580001188BFF34F8FBFF36F8FFEE710BD0000B0
:103590009C0000200CED00E010B5084B002200BF9D
:1035A00053F832401CB1521C082AF9D310BD43F81D
:1035B000321003EBC201486010BD0000D4010020AE
:1035C00070B515460E460446FFF748FF94F94410BF
:1035D0000020491C01D184F8440094F94510491C8D
:1035E00001D184F84500FFF759FFA06B28B92A469E
:1035F000314604F1240000F051F82046BDE8704047
:10360000FFF71CBE10B5020014D00F48806B38B114
:10361000502080F31188BFF34F8FBFF36F8FFEE709
:1036200000F09CF800211046FFF79CFA00F03AFDEC
:10363000002807D105494FF080500860BFF34F8F35
:10364000BFF36F8F10BD00003000002004ED00E0DC
:1036500002498A6A0260496941607047300000206F
:1036600001490120486270473000002010B50C4627
:1036700050B1094909681831FFF7CCFE2046BDE872
:1036800010400121FFF76EBA502080F31188BFF37C
:103690004F8FBFF36F8FFEE73000002070B51446E8
:1036A0000D4668B10A4909681831FFF7CBFE0CB125
:1036B0004FF0FF3521462846BDE87040FFF752BA6B
:1036C000502080F31188BFF34F8FBFF36F8FFEE759
:1036D0003000002030B587B00024039405AA04A967
:1036E00003A80494FFF772FEDDE903010094CDE91D
:1036F0000110002315A11748059A00F0B8FB164DDC
:10370000002868631FD000F02FFD012809D0401C5D
:1037100019D1502080F31188BFF34F8FBFF36F8F03
:10372000FEE7502080F31188BFF34F8FBFF36F8FF8
:103730004FF0FF3028630120E8616C6107B0BDE8FD
:10374000304000F045B807B030BD000049444C455A
:1037500000000000FD2D0008300000200248816BB1
:10376000491C81637047000030000020164810B5E6
:10377000816B11B10121416210BD0021416281695B
:10378000124A01E0B9B1491E01EB810352F823301E
:10379000002BF7D001EB810302EB830202F1080456
:1037A00053685B685360A34201D15B685360DA6879
:1037B0000260816110BD502080F31188BFF34F8FEC
:1037C000BFF36F8FFEE700003000002014020020DE
:1037D0001CB5264908780190FF20087008788DF8FC
:1037E00000009DF800009DF8002000F0F0009042DD
:1037F00007D0502080F31188BFF34F8FBFF36F8F36
:10380000FEE79DF800001A4B00F0500018700720EA
:10381000986005E09DF8002052008DF80020401EC1
:103820009DF800201206F5D49860032807D0502098
:1038300080F31188BFF34F8FBFF36F8FFEE74FF414
:1038400040709860019808700A48016841F470015E
:103850000160016841F070410160FFF761FE0020E6
:103860005860FCF7A7FC00201CBD000000E400E04D
:103870009C00002020ED00E0F8B517460E4605003C
:1038800014D0DEB105FB06F05030FFF70DFD04004B
:103890000AD0002084F8460004F150023B4631462D
:1038A00028460094FFF7DAFA2046F8BD502080F34E
:1038B0001188BFF34F8FBFF36F8FFEE70020E3E760
:1038C00038B5049D18B153B1CAB181B120E0502080
:1038D00080F31188BFF34F8FBFF36F8FFEE7502047
:1038E00080F31188BFF34F8FBFF36F8FFEE7502037
:1038F00080F31188BFF34F8FBFF36F8FFEE739B1AD
:10390000502080F31188BFF34F8FBFF36F8FFEE716
:1039100050241C46012384F846302B460094FFF7C0
:103920009DFA204638BD000070B50D46040025D034
:10393000FFF794FDD4E90F20216802FB00116160BC
:103940000021A1632168A1600A46D4E90F01401E4D
:1039500000FB0121E16021464FF0FF3001F8440FE8
:10396000487004F110008DB1FFF746FD04F124000A
:10397000FFF742FDFFF792FD012070BD502080F35C
:103980001188BFF34F8FBFF36F8FFEE721690029C6
:10399000F0D000F04FFB0028ECD004494FF08050ED
:1039A0000860BFF34F8FBFF36F8FE3E704ED00E0D4
:1039B0002DE9FF4782B01D468A464FF000080400FB
:1039C00003D0BAF1000F08D011E0502080F3118825
:1039D000BFF34F8FBFF36F8FFEE7206C38B15020DD
:1039E00080F31188BFF34F8FBFF36F8FFEE7022D77
:1039F0000AD1E06B012807D0502080F31188BFF373
:103A00004F8FBFF36F8FFEE700F05CFA3F4F4FF030
:103A100000094FF0805648B9049838B1502080F31F
:103A20001188BFF34F8FBFF36F8FFEE7FFF716FDCF
:103A3000A06BE16B884207D3022D05D00498D0B16A
:103A4000B8F1000F1AD01EE02A4651462046FFF773
:103A50005EF9616A19B104F1240000F0EBFA20B1BB
:103A60003E60BFF34F8FBFF36F8FFFF717FD01204D
:103A700006B0BDE8F087FFF711FD22E06846FFF7CA
:103A8000E7FD4FF00108FFF709FDFFF767FEFFF7BD
:103A9000E5FC94F94400401C01D184F8449094F969
:103AA0004500401C01D184F84590FFF7F7FC04A9BC
:103AB000684600F075F930B12046FFF7BFFB00F013
:103AC000F1FA0020D4E7FFF7C9FCA06BE16B884254
:103AD00013D1FFF7E3FC04F110000499FFF7C6FDD2
:103AE0002046FFF7ABFB00F0DDFA00289ED13E60D8
:103AF000BFF34F8FBFF36F8F98E7FFF7CFFC2046E0
:103B0000FFF79CFB00F0CEFA90E7000004ED00E028
:103B10002DE9F0471F4690468946040003D0B9F1CD
:103B2000000F08D011E0502080F31188BFF34F8FB1
:103B3000BFF36F8FFEE7206C38B1502080F31188FF
:103B4000BFF34F8FBFF36F8FFEE7022F0AD1E06BF9
:103B5000012807D0502080F31188BFF34F8FBFF3A7
:103B60006F8FFEE7FFF7EEFC5020EFF3118680F336
:103B70001188BFF34F8FBFF36F8FA06BE16B88424B
:103B800006D3022F04D0002086F31188BDE8F08709
:103B900094F945503A4649462046FFF7B8F8681C64
:103BA00004D06D1C84F845500120EDE7606A0028C0
:103BB000FAD004F1240000F03DFA0028F4D0B8F166
:103BC000000FF1D00121C8F80010EDE72DE9F7470B
:103BD000002683B08A46040003D0BAF1000F08D053
:103BE00011E0502080F31188BFF34F8FBFF36F8F28
:103BF000FEE7206C38B1502080F31188BFF34F8F5F
:103C0000BFF36F8FFEE700F05DF9DFF8F4804FF04F
:103C100000094FF0805748B9059838B1502080F31B
:103C20001188BFF34F8FBFF36F8FFEE7FFF716FCCE
:103C3000A56BC5B151462046FFF756F86D1EA5632A
:103C4000206950B104F1100000F0F4F928B1C8F86F
:103C50000070BFF34F8FBFF36F8FFFF71FFC012082
:103C600006B0BDE8F087059808B11EB106E0FFF781
:103C700015FC27E06846FFF7EBFC0126FFF70EFC7A
:103C8000FFF76CFDFFF7EAFB94F94400401C01D1FB
:103C900084F8449094F94500401C01D184F8459083
:103CA000FFF7FCFB05A9684600F07AF800282046DB
:103CB0000AD0FFF7C3FA00F0F5F92046FFF770F9D4
:103CC0000028B3D00020CBE7FFF76AF990B104F1E8
:103CD00024000599FFF7CAFC2046FFF7AFFA00F071
:103CE000E1F90028A2D1C8F80070BFF34F8FBFF3ED
:103CF0006F8F9BE72046FFF7A1FA00F0D3F995E715
:103D000004ED00E02DE9F04790468946040003D019
:103D1000B9F1000F08D011E0502080F31188BFF3F3
:103D20004F8FBFF36F8FFEE7206C38B1502080F3C8
:103D30001188BFF34F8FBFF36F8FFEE7FFF702FCD1
:103D40005020EFF3118680F31188BFF34F8FBFF33C
:103D50006F8FA76BF7B194F9445049462046FEF7A0
:103D6000C3FF7F1EA763681C04D06D1C84F84450F9
:103D7000012010E020690028FAD004F1100000F0C2
:103D800059F90028F4D0B8F1000FF1D00121C8F89A
:103D90000010EDE7002086F31188BDE8F0870000F1
:103DA0002DE9F0410C46050011D0C4B1FFF756FBD8
:103DB000174B5A696E682068911B471C17D02F68F3
:103DC0009B6A9F4219D0964217D8012410E05020D8
:103DD00080F31188BFF34F8FBFF36F8FFEE7502042
:103DE00080F31188BFF34F8FBFF36F8FFEE700247E
:103DF000FFF754FB2046BDE8F081884205D9401A00
:103E000020602846FFF724FCF1E700202060DCE773
:103E1000300000202DE9FF5F8346DDE90E879946DB
:103E200016468A469000FFF73FFA05001CD05C203A
:103E3000FFF73AFA040014D00020256384F85900F3
:103E4000CDE90240CDE900874B46324651465846FF
:103E5000FFF715F82046FEF7B3FE012004B0BDE8D9
:103E6000F09F2846FFF72EFB4FF0FF30F6E7F0B546
:103E700085B0DDE90B640A9DA6B1DCB15C27009733
:103E80002663022684F85960002604AFCDE9024675
:103E9000CDE90057FEF7F3FF2046FEF791FE0498A8
:103EA00005B0F0BD502080F31188BFF34F8FBFF3F2
:103EB0006F8FFEE7502080F31188BFF34F8FBFF361
:103EC0006F8FFEE70548C16919B1806B18B10020FA
:103ED000704701207047022070470000300000202A
:103EE0000148406970470000300000202DE9F04192
:103EF0002E4C0027A06B40B1206A401C2062606AF3
:103F000000B101273846BDE8F0816669761C66611C
:103F100013D16068006838B1502080F31188BFF376
:103F20004F8FBFF36F8FFEE76068A1686160A0608C
:103F3000A06A401CA062FFF701F9206BDFF87080D7
:103F4000864209D36068006880B16068C068C5684F
:103F5000686886420DD220632068C06A00EB800149
:103F600058F821000128CAD90127C8E74FF0FF30CF
:103F7000F1E7281DFFF716FAA86A18B105F1180035
:103F8000FFF710FAE86AA169884200D9A06100EB46
:103F9000800108EB8100291DFFF754FAE86A2168C7
:103FA000C96A8842CED30127CCE700003000002048
:103FB0001402002070B504004FF0000133D01B4DF7
:103FC0002868844207D0502080F31188BFF34F8FB8
:103FD000BFF36F8FFEE7206D38B1401E2065E36CA4
:103FE000E26A9A421FD040B11DE0502080F3118850
:103FF000BFF34F8FBFF36F8FFEE7201DFFF7D2F99E
:10400000E06CE062C0F13800A061E06AA969884212
:1040100000D9A861064900EB800001EB8000211D5A
:10402000FFF710FA0121084670BD000030000020A3
:104030001402002070B5C068C46854B104F11800BF
:104040000646FFF7AFF9144DA86B50B1314613483F
:1040500015E0502080F31188BFF34F8FBFF36F8FAF
:10406000FEE7201DFFF79EF9E06AA969884200D9A2
:10407000A8610B4900EB800001EB8000211DFFF7D8
:10408000E1F9E06A2968C96A884202D901206862B8
:1040900070BD002070BD0000300000209C06002094
:1040A000140200202DE9F0472C4D00242746A86B70
:1040B00038B1FFF7D3F9A86B401EA863A86B40B1D5
:1040C00046E0502080F31188BFF34F8FBFF36F8F0E
:1040D000FEE72969224E0120D1B3A6F591698046F9
:1040E0003068E0B1F068C46804F11800FFF75AF9CD
:1040F000201DFFF757F9E06AA969884200D9A86135
:1041000000EB800109EB8100211DFFF79BF9E06ABC
:104110002968C96A8842E3D3C5F82480E0E70CB176
:10412000FFF70CF82C6A4CB14FEA0806FFF7DEFEE9
:1041300000B16E62641EF9D100202862686A38B14D
:104140000849012738070860BFF34F8FBFF36F8F0F
:10415000FFF7A4F93846BDE8F087000030000020E2
:104160009C06002004ED00E010B586B0FEF790FD3F
:10417000114CA068B8B100200390049005AA04A9CE
:1041800003A8FFF72DF9DDE9032102208DE80700E0
:1041900000230AA10B48059AFFF769FEE06010B101
:1041A00006B0012010BD502080F31188BFF34F8F5F
:1041B000BFF36F8FFEE700006C000020546D72208B
:1041C00053766300193200082DE9FF411E4613465D
:1041D00002000A9D4FF0000016D0144CA768002F73
:1041E0000FD0CDE900130292062917DAFFF76AFE15
:1041F00002284FF000030FD000226946A068FFF7A5
:10420000D7FB04B0BDE8F081502080F31188BFF3E4
:104210004F8FBFF36F8FFEE72A46EEE7002332464B
:1042200069463846FFF774FCEBE700006C0000209D
:10423000000000000000000000000000000000007E
:10424000000000F800000000000000333000000013
:1042500000100C06100C060000000000000000001A
:1042600040C07840C0784000043F04043F0404008C
:10427000007088FC08300000001820FF211E00009C
:10428000F008F000E018000000211C031E211E00B1
:1042900000F00888700000001E2123241927211037
:1042A00010160E00000000000000000000000000DA
:1042B000000000E018040200000000071820400081
:1042C00000020418E0000000004020180700000071
:1042D000404080F0804040000202010F01020200D5
:1042E000000000F0000000000101011F01010100B9
:1042F000000000000000000080B07000000000001E
:1043000000000000000000000001010101010101A6
:10431000000000000000000000303000000000003D
:104320000000000080601804006018060100000012
:1043300000E010080810E000000F102020100F000F
:10434000001010F8000000000020203F2020000096
:1043500000700808088870000030282422213000EE
:1043600000300888884830000018202020110E00F6
:104370000000C02010F8000000070424243F24009F
:1043800000F80888880808000019212020110E0074
:1043900000E0108888180000000F112020110E0086
:1043A00000380808C83808000000003F000000007E
:1043B0000070880808887000001C222121221C003F
:1043C00000E010080810E0000000312222110F0068
:1043D000000000C0C00000000000003030000000FD
:1043E000000000800000000000008060000000006D
:1043F0000000804020100800000102040810200086
:1044000040404040404040000404040404040400D0
:104410000008102040800000002010080402010065
:10442000007048080808F000000000303601000065
:10443000C030C828E810E0000718272423140B0018
:104440000000C038E0000000203C23020227382092
:1044500008F8888888700000203F202020110E0076
:10446000C03008080808380007182020201008006D
:1044700008F808080810E000203F202020100F0056
:1044800008F88888E8081000203F20202320180022
:1044900008F88888E8081000203F2000030000008A
:1044A000C03008080838000007182020221E02002B
:1044B00008F808000008F808203F210101213F20EA
:1044C000000808F8080800000020203F2020000015
:1044D00000000808F8080800C08080807F00000005
:1044E00008F888C028180800203F2001263820003E
:1044F00008F8080000000000203F202020203000A5
:1045000008F8F800F8F80800203F003F003F2000BE
:1045100008F830C00008F808203F200007183F00C6
:10452000E01008080810E0000F10202020100F00F5
:1045300008F808080808F000203F210101010000E8
:10454000E01008080810E0000F18242438504F002D
:1045500008F8888888887000203F2000030C3020ED
:1045600000708808080838000038202121221C002B
:10457000180808F8080818000000203F2000000074
:1045800008F808000008F808001F202020201F005D
:104590000878880000C83808000007380E010000BD
:1045A000F80800F80008F800033C0700073C030087
:1045B000081868808068180820302C03032C3020ED
:1045C0000838C800C83808000000203F200000005C
:1045D00010080808C83808002038262120201800B4
:1045E000000000FE020202000000007F4040400088
:1045F000000C30C000000000000000010638C000C0
:1046000000020202FE000000004040407F00000067
:10461000000004020202040000000000000000008C
:10462000000000000000000080808080808080808A
:104630000002020400000000000000000000000072
:1046400000008080808000000019242222223F2068
:1046500008F8008080000000003F112020110E00AB
:104660000000008080800000000E1120202011003A
:10467000000000808088F800000E112020103F20EC
:104680000000808080800000001F22222222130070
:10469000008080F0888888180020203F20200000BB
:1046A0000000808080808000006B94949493600070
:1046B00008F8008080800000203F210000203F207B
:1046C00000809898000000000020203F202000007B
:1046D000000000809898000000C08080807F00006B
:1046E00008F8000080808000203F24022D30200048
:1046F000000808F8000000000020203F20200000F3
:104700008080808080808000203F20003F20003F0C
:104710008080008080800000203F210000203F201A
:104720000000808080800000001F202020201F00CB
:10473000808000808000000080FFA12020110E00FA
:104740000000008080808000000E112020A0FF80EB
:10475000808080008080800020203F212000010098
:1047600000008080808080000033242424241900ED
:10477000008080E0808000000000001F20200000FA
:104780008080000000808000001F202020103F203B
:10479000808080000080808000010E3008060100CB
:1047A00080800080008080800F300C030C300F0070
:1047B00000808000808080000020312E0E3120009B
:1047C000808080000080808080818E7018060100CB
:1047D00000808080808080000021302C22213000E9
:1047E00000000000807C020200000000003F40400A
:1047F00000000000FF00000000000000FF000000BB
:104800000002027C800000000040403F00000000E9
:104810000006010102020404000000000000000084
:1048200040490008000000000000000000000000F7
:10483000000000000002000018000000000000005E
:1048400000000000284900080000000000000000EF
:10485000000000000000000000020000180000003E
:1048600000000000000000003449000800000000C3
:104870000000000000000000000000000002000036
:104880001800000000000000000000005849000867
:104890000000000000000000000000000000000018
:1048A00000020000080000000000000000000000FE
:1048B000484900080000000000000000000000005F
:1048C00000000000000200001800000000000000CE
:1048D0000000000050490008000000000000000037
:1048E00000000000000000000000000001020203C0
:1048F0000405060708090A0B0C0D0E0F1010000026
:10490000000000000000010203040607080900007F
:104910000000010203040400000800000000000081
:1049200000020001000010005461736B44485431D0
:10493000310000005461736B4F4C4544000000008F
:104940005461736B4C4544005461736B46414E0097
:104950006D795175657565005461736B5265706F43
:10496000727400008449000800000020A8000000C4
:10497000280100082C4A0008A8000020602400003C
:1049800044010008000000000000000000000000DA
:104990000000000000000000000000000000000017
:1049A00000000000010000001000000000000000F6
:1049B0000024F400000000000000000000000000DF
:1049C00000000000000000000000000000000000E7
:1049D00000000000000000000000000000000000D7
:1049E00000000000000000000000000000000000C7
:1049F00000000000000000000000000000000000B7
:104A000000000000000000000000000000000000A6
:104A10000000000000000000000000000000000096
:0C4A200000000000AAAAAAAA00000000E2
:04000005080000ED02
:00000001FF
